{
  "_format": "hh-sol-artifact-1",
  "contractName": "Donation",
  "sourceName": "contracts/Donation.sol",
  "abi": [
    {
      "inputs": [],
      "stateMutability": "nonpayable",
      "type": "constructor"
    },
    {
      "inputs": [
        {
          "internalType": "address",
          "name": "_owner",
          "type": "address"
        }
      ],
      "name": "initialize",
      "outputs": [],
      "stateMutability": "nonpayable",
      "type": "function"
    },
    {
      "inputs": [],
      "name": "isBase",
      "outputs": [
        {
          "internalType": "bool",
          "name": "",
          "type": "bool"
        }
      ],
      "stateMutability": "view",
      "type": "function"
    },
    {
      "inputs": [],
      "name": "owner",
      "outputs": [
        {
          "internalType": "address",
          "name": "",
          "type": "address"
        }
      ],
      "stateMutability": "view",
      "type": "function"
    }
  ],
  "bytecode": "0x608060405234801561001057600080fd5b5060016000806101000a81548160ff02191690831515021790555061060c8061003a6000396000f3fe608060405234801561001057600080fd5b50600436106100415760003560e01c80637f80069a146100465780638da5cb5b14610064578063c4d66de814610082575b600080fd5b61004e61009e565b60405161005b91906103f8565b60405180910390f35b61006c6100af565b60405161007991906103dd565b60405180910390f35b61009c60048036038101906100979190610317565b6100d5565b005b60008054906101000a900460ff1681565b600060019054906101000a900473ffffffffffffffffffffffffffffffffffffffff1681565b6000151560008054906101000a900460ff16151514610129576040517f08c379a000000000000000000000000000000000000000000000000000000000815260040161012090610443565b60405180910390fd5b600073ffffffffffffffffffffffffffffffffffffffff16600060019054906101000a900473ffffffffffffffffffffffffffffffffffffffff1673ffffffffffffffffffffffffffffffffffffffff16146101ba576040517f08c379a00000000000000000000000000000000000000000000000000000000081526004016101b190610463565b60405180910390fd5b6101f96040518060400160405280601a81526020017f636f6e747261637420696e6974697a69616c697a65642062793a0000000000008152508261023d565b80600060016101000a81548173ffffffffffffffffffffffffffffffffffffffff021916908373ffffffffffffffffffffffffffffffffffffffff16021790555050565b6102d58282604051602401610253929190610413565b6040516020818303038152906040527f319af333000000000000000000000000000000000000000000000000000000007bffffffffffffffffffffffffffffffffffffffffffffffffffffffff19166020820180517bffffffffffffffffffffffffffffffffffffffffffffffffffffffff83818316178352505050506102d9565b5050565b60008151905060006a636f6e736f6c652e6c6f679050602083016000808483855afa5050505050565b600081359050610311816105bf565b92915050565b60006020828403121561032957600080fd5b600061033784828501610302565b91505092915050565b6103498161049f565b82525050565b610358816104b1565b82525050565b600061036982610483565b610373818561048e565b93506103838185602086016104dd565b61038c81610510565b840191505092915050565b60006103a460278361048e565b91506103af82610521565b604082019050919050565b60006103c760278361048e565b91506103d282610570565b604082019050919050565b60006020820190506103f26000830184610340565b92915050565b600060208201905061040d600083018461034f565b92915050565b6000604082019050818103600083015261042d818561035e565b905061043c6020830184610340565b9392505050565b6000602082019050818103600083015261045c81610397565b9050919050565b6000602082019050818103600083015261047c816103ba565b9050919050565b600081519050919050565b600082825260208201905092915050565b60006104aa826104bd565b9050919050565b60008115159050919050565b600073ffffffffffffffffffffffffffffffffffffffff82169050919050565b60005b838110156104fb5780820151818401526020810190506104e0565b8381111561050a576000848401525b50505050565b6000601f19601f8301169050919050565b7f4572726f723a204261736520636f6e74726163742063616e6e6f7420696e697460008201527f69616c697a652e00000000000000000000000000000000000000000000000000602082015250565b7f4572726f723a20436f6e747261637420697320616c726561647920696e69746960008201527f616c697a65642e00000000000000000000000000000000000000000000000000602082015250565b6105c88161049f565b81146105d357600080fd5b5056fea2646970667358221220079a959c92e1c7d0d91cf4815b13301d79d17fa544ccfc5dd4cd5c34fee7225864736f6c63430008040033",
  "linkReferences": {},
  "deployedLinkReferences": {}
}